:020000040800F2
:100000000000012031180008C1160008C7160008BA
:10001000CD160008D3160008D9160008000000000D
:10002000000000000000000000000000DF160008D3
:10003000ED16000800000000FB1600080917000874
:10004000811800088118000881180008811800082C
:10005000811800088118000881180008811800081C
:10006000811800088118000881180008811800080C
:1000700081180008811800088118000881180008FC
:100080001517000829170008811800080000000053
:1000900000000000000000000000000081180008BF
:1000A00081180008811800088118000881180008CC
:1000B000811800083D170008811800088118000801
:1000C00081180008811800088118000881180008AC
:1000D000811800085117000865170008000000008B
:1000E000811800088118000881180008000000002D
:1000F000000000000000000000000000811800085F
:10010000000000008118000881180008811800080C
:1001100000000000000000000000000000000000DF
:100120008118000881180008791700088118000854
:10013000811800080000000000000000000000001E
:10014000000000000000000000000000811800080E
:1001500081180008811800088D1700088118000810
:10016000811800088118000800000000000000004D
:10017000000000000000000000000000000000007F
:1001800000000000811800080000000000000000CE
:0401900081180008CA
:1001A00010B5054C237833B9044B13B10448AFF3B1
:1001B00000800123237010BD5C00002000000000BF
:1001C000D45E000808B5034B1BB103490348AFF3E5
:1001D000008008BD0000000060000020D45E000820
:1001E00001F0FF01102A2BDB10F0070F08D010F8E8
:1001F000013B013A8B422DD010F0070F42B3F6D1EC
:10020000F0B441EA012141EA014122F007047FF004
:1002100000070023F0E80256083C85EA010586EA5B
:10022000010685FA47F5A3FA87F586FA47F6A5FA97
:1002300087F68EB9EED1F0BC01F0FF0102F00702A3
:1002400032B110F8013B013A83EA010313B1F8D14E
:100250000020704701387047002D06BF354603382F
:10026000073815F0010F07D1013015F4807F02BF68
:10027000013015F4C03F0130F0BC0138704700BFB9
:1002800053B94AB9002908BF00281CBF4FF0FF31FD
:100290004FF0FF3000F070B9ADF1080C6DE904CEFD
:1002A00000F006F8DDF804E0DDE9022304B0704751
:1002B0002DE9F047089E0D4604460F46002B4AD113
:1002C0008A42944665D9B2FA82F343B102FA03FC3A
:1002D000C3F120029F4020FA02F217439C404FEAEC
:1002E0001C4E1FFA8CF5B7FBFEF1220C0EFB1177AA
:1002F00042EA074201FB05F090420AD91CEB0202D8
:1003000001F1FF3780F01C81904240F219810239DF
:100310006244121AA4B2B2FBFEF00EFB102244EAB1
:10032000024400FB05F5A5420AD91CEB040400F1C8
:10033000FF3280F00781A54240F204816444023814
:1003400040EA0140641B00211EB1DC400023C6E9E5
:100350000043BDE8F0878B4208D9002E00F0ED8005
:100360000021C6E900050846BDE8F087B3FA83F12D
:10037000002949D1AB4202D3824200F2F880841AAC
:1003800065EB030201201746002EE2D0C6E90047C4
:10039000DFE702B9FFDEB2FA82F3002B40F0908073
:1003A0008A1A4FEA1C471FFA8CFE0121B2FBF7F5AF
:1003B00007FB1520220C42EA00420EFB05F090429A
:1003C00008D91CEB020205F1FF3802D2904200F27C
:1003D000CB804546121AA4B2B2FBF7F007FB1022FD
:1003E00044EA02440EFB00FEA64508D91CEB0404B7
:1003F00000F1FF3202D2A64500F2BB801046A4EB0A
:100400000E0440EA05409FE7C1F120078B4022FA25
:1004100007FC4CEA030C05FA01F420FA07F3FD404F
:100420004FEA1C492343B5FBF9F81FFA8CFE09FB80
:1004300018551C0C44EA054408FB0EF5A54202FAC7
:1004400001F200FA01F00BD91CEB040408F1FF3AA9
:1004500080F08880A54240F28580A8F102086444BB
:10046000641B9DB2B4FBF9F309FB134445EA044451
:1004700003FB0EFEA64508D91CEB040403F1FF356F
:100480006CD2A6456AD9023B644443EA0843A3FB05
:100490000295A4EB0E04AC42C846AE4656D353D0E8
:1004A00056B1B0EB080264EB0E0404FA07F7CA4039
:1004B000CC401743C6E9007418460021BDE8F08718
:1004C000C3F1200102FA03FC20FA01F225FA01F13E
:1004D0009D402A434FEA1C471FFA8CFEB1FBF7F000
:1004E00007FB1015110C41EA054100FB0EF58D428A
:1004F00004FA03F408D91CEB010100F1FF382FD2F4
:100500008D422DD902386144491B92B2B1FBF7F5F7
:1005100007FB151142EA014205FB0EF1914208D991
:100520001CEB020205F1FF3816D2914214D9023DAC
:100530006244521A45EA004138E73146304608E73E
:100540003946E6E61046FBE64845A9D2B9EB020873
:1005500065EB0C0E013BA3E74546EAE72B4694E723
:100560004046D1E7D0467BE7023D624432E7084689
:100570000AE76444023842E7704700BF80B582B0A2
:1005800000AF7860164B1B78012B25D1154B1B78DB
:10059000002B12D1144B1B78022B01D1012200E059
:1005A0000222114B1A700E4B00221A700D4B0122C1
:1005B0001A700E4802F094FD0EE00D4B01221A70E5
:1005C000094B00221A70064B02221A70054B0022BA
:1005D0001A70064802F084FD00BF0837BD4680BD92
:1005E000B4030020B5030020B3030020080100205D
:1005F000B603002080B588B000AF78600B467B80E2
:100600007B681B68704A934276D1704B00221A8037
:100610006F4B1B784C3B072B52D801A252F823F0AA
:1006200051060008C1060008C1060008C1060008FE
:1006300049060008C10600088906000841060008AE
:10064000644B01221A703BE0624B00221A7037E0C3
:10065000604B02221A700123FB610AE0FB69013B37
:100660005B49FA690A4411785B4AD154FB6901334A
:10067000FB61FB69022BF1DD574804F0F7FE0346EE
:100680009AB2564B1A801BE0524B03221A70012378
:10069000BB610AE0BB69013B4D49BA690A44117864
:1006A0004D4AD154BB690133BB61BB69022BF1DDFB
:1006B000494804F0DBFE03469AB2484B1A8000BF5B
:1006C0000023FB7506E0FB7D414A0021D154FB7DF0
:1006D0000133FB75FB7D9BB27A889A42F3D80822DE
:1006E0003B493F4803F06DFD3E4B1B681A683D4B8C
:1006F0001B6822F008021A607B681B683A4A934222
:100700005ED100233B610BE0384A3B691344197802
:10071000314A3B6913440A461A703B6901333B6115
:100720007B883A699A42EFDB2B4B1B784C2B03D129
:10073000294B1B78522B0CD0264B02221A70234BCC
:1007400000221A80244804F091FE03469AB2234BFB
:100750001A80214B1B784C2B03D01F4B1B78522B3C
:100760000ED1234B00221A70224B00221A701A4B12
:100770001B784C2B01D1022200E001221E4B1A7083
:100780000023FB730AE0FB7B134A0021D154FB7B5F
:10079000164A0021D154FB7B0133FB73FB7B9BB2D8
:1007A0007A889A42EFD808221049144803F009FDCC
:1007B000134B1B681A68124B1B6822F008021A6060
:1007C00000BF2037BD4680BD00100140B8030020A7
:1007D000A0030020B2030020BC030020B0030020CF
:1007E000980100202002002000440040A8030020BF
:1007F000B6030020B4030020B3030020DC01002076
:10080000E002002080B500AF01F03CF800F0D4F821
:1008100000F0E6FB00F09EFB00F02EF900F046FB36
:1008200000F0D6F900F06CFB00F05CFA00F0A8FADA
:1008300008224F494F4803F0C4FC4F4B1B681A680D
:100840004D4B1B6822F008021A6008224B494C48A5
:1008500003F0B7FC4B4B1B681A684A4B1B6822F02D
:1008600008021A600021484802F0C2FC0C214648E8
:1008700002F0BEFC0421454802F0BAFC00214348C6
:1008800002F0B6FC0821414802F0B2FC00214048C9
:1008900002F0AEFC04213E4802F0AAFC08213C48CC
:1008A00002F0A6FC0C213A4802F0A2FC394B1B785E
:1008B000394A1288D2B21146184600F0EDFB0346C1
:1008C000002B01D000F06AFC344B1B88002B09D1AF
:1008D00000F0C8FB0346002B01D000F05FFC2F4B5B
:1008E00001221A802E4B1B78002B14D12D4B1B7824
:1008F000002B05D12C4802F091FB2A4B01221A70E3
:100900002A4B1B783221184600F010FC0346002BBE
:1009100001D000F043FC264B1B78002BC6D0254BA2
:100920001A781A4B1B685A63224B1A78174B1B68AC
:10093000DA63204B1A78164B1B685A631D4B1A78E2
:10094000134B1B689A631B4B1A78114B1B68DA63B5
:10095000184B1A780E4B1B681A64164B1A780A4B00
:100960001B681A64134B1A78084B1B689A639DE73F
:10097000A00300209801002020020020A8030020EE
:10098000DC010020E002002078000020C0000020F0
:1009900050010020B2030020B0030020B803002063
:1009A000B6030020B403002008010020B303002098
:1009B000BB030020BA03002080B594B000AF07F15C
:1009C000200330220021184604F000FE07F10C033A
:1009D00000221A605A609A60DA601A610023BB60D4
:1009E000234B1B6C224A43F080531364204B1B6C37
:1009F00003F08053BB60BB6800237B601D4B1B680A
:100A000023F440431B4A43F400431360194B1B6813
:100A100003F440437B607B6802233B620123FB625B
:100A200010233B630023BB6307F12003184601F04A
:100A30004DFE0346002B01D000F0B0FB0F23FB60FE
:100A400000233B6100237B610023BB610023FB612A
:100A500007F10C030021184602F0B0F80346002B02
:100A600001D000F09BFB00BF5037BD4680BD00BFEA
:100A7000003802400070004080B596B000AF07F12A
:100A8000480300221A605A609A60DA6007F1400356
:100A900000221A605A6007F1240300221A605A608B
:100AA0009A60DA601A615A619A613B1D2022002126
:100AB000184604F08BFD444B444A1A60424B9F2277
:100AC0005A60414B00229A603F4B6322DA603E4BF2
:100AD00000221A613C4B00225A613B4B80229A61F2
:100AE000394802F04BFA0346002B01D000F056FBC8
:100AF0004FF48053BB6407F148031946324802F0B3
:100B0000F1FD0346002B01D000F048FB2E4802F017
:100B100016FB0346002B01D000F040FB00233B6492
:100B200000237B6407F140031946274803F096F938
:100B30000346002B01D000F031FB60237B620023D1
:100B4000BB620023FB6200233B6300237B63002323
:100B5000BB630023FB6307F12403002219461A48F4
:100B600002F0FEFC0346002B01D000F017FB07F15A
:100B700024030C221946144802F0F2FC0346002B11
:100B800001D000F00BFB00237B600023BB6000233F
:100B9000FB6000233B6100237B614FF40053BB618A
:100BA00000233B623B1D1946074803F0C5F9034685
:100BB000002B01D000F0F2FA034800F085FB00BFE3
:100BC0005837BD4680BD00BF7800002000000140BE
:100BD00080B58EB000AF07F1280300221A605A607A
:100BE0009A60DA6007F1200300221A605A603B1D08
:100BF00000221A605A609A60DA601A615A619A613A
:100C0000374B4FF080421A60354B9F225A60344B6D
:100C100000229A60324B6322DA60314B00221A6163
:100C20002F4B80229A612E4802F0A8F90346002B30
:100C300001D000F0B3FA4FF48053BB6207F12803F0
:100C40001946274802F04EFD0346002B01D000F064
:100C5000A5FA234802F073FA0346002B01D000F0F6
:100C60009DFA00233B6200237B6207F120031946B3
:100C70001B4803F0F3F80346002B01D000F08EFA76
:100C800060237B600023BB600023FB6000237B614B
:100C90003B1D00221946124802F062FC0346002B5D
:100CA00001D000F07BFA3B1D042219460C4802F0EB
:100CB00057FC0346002B01D000F070FA3B1D0822C0
:100CC0001946074802F04CFC0346002B01D000F007
:100CD00065FA034800F0F8FA00BF3837BD4680BD1A
:100CE000C000002080B586B000AF07F108030022E5
:100CF0001A605A609A60DA603B4600221A605A60B5
:100D00001D4B1E4A1A601C4B40F23F625A601A4B40
:100D100000229A60184B42F20F72DA60164B0022E2
:100D20001A61154B00229A61134802F027F9034615
:100D3000002B01D000F032FA4FF48053BB6007F172
:100D4000080319460C4802F0CDFC0346002B01D0E5
:100D500000F024FA00233B6000237B603B461946E9
:100D6000054803F07BF80346002B01D000F016FA8B
:100D700000BF1837BD4680BD0801002000040040B8
:100D800080B58EB000AF07F1280300221A605A60C8
:100D90009A60DA6007F1200300221A605A603B1D56
:100DA00000221A605A609A60DA601A615A619A6188
:100DB0003C4B3D4A1A603B4B9F225A60394B002204
:100DC0009A60384B6322DA60364B00221A61354B49
:100DD00080229A61334802F0D1F80346002B01D0FB
:100DE00000F0DCF94FF48053BB6207F12803194689
:100DF0002C4802F077FC0346002B01D000F0CEF91E
:100E0000284802F09CF90346002B01D000F0C6F9F7
:100E100000233B6200237B6207F12003194621482F
:100E200003F01CF80346002B01D000F0B7F9602353
:100E30007B600023BB600023FB6000237B613B1DC4
:100E400000221946174802F08BFB0346002B01D005
:100E500000F0A4F93B1D04221946124802F080FB61
:100E60000346002B01D000F099F93B1D08221946DA
:100E70000C4802F075FB0346002B01D000F08EF900
:100E80003B1D0C221946074802F06AFB0346002B63
:100E900001D000F083F9034800F016FA00BF38379C
:100EA000BD4680BD500100200008004080B500AF65
:100EB000114B124A1A60104B4FF416525A600E4BE7
:100EC00000229A600C4B0022DA600B4B00221A6160
:100ED000094B0C225A61084B00229A61064B0022F2
:100EE000DA61054803F08EF80346002B01D000F0CC
:100EF00055F900BF80BD00BF9801002000100140DF
:100F000080B500AF114B124A1A60104B4FF41652C5
:100F10005A600E4B00229A600C4B0022DA600B4B99
:100F200000221A61094B0C225A61084B00229A6177
:100F3000064B0022DA61054803F064F80346002BF3
:100F400001D000F02BF900BF80BD00BFDC01002004
:100F50000044004080B582B000AF00237B601F4B8F
:100F60001B6B1E4A43F4800313631C4B1B6B03F47F
:100F700080037B607B6800233B60184B1B6B174A28
:100F800043F400131363154B1B6B03F400133B6016
:100F90003B6800220021102000F0C1FD102000F06D
:100FA000DAFD00220021112000F0B9FD112000F02F
:100FB000D2FD002200213A2000F0B1FD3A2000F0DD
:100FC000CAFD00220021462000F0A9FD462000F0C5
:100FD000C2FD00BF0837BD4680BD00BF00380240DB
:100FE00080B588B000AF07F10C0300221A605A6088
:100FF0009A60DA601A610023BB60184B1B6B174ABA
:1010000043F001031363154B1B6B03F00103BB603B
:10101000BB6800237B60114B1B6B104A43F002033B
:1010200013630E4B1B6B03F002037B607B68002293
:1010300060210B4801F030FB6023FB6001233B6122
:1010400000237B610023BB6107F10C0319460448B0
:1010500001F09EF900BF2037BD4680BD0038024038
:101060000000024080B500AF074B1B881A460749B5
:10107000074804F08BFA642302220549054803F06F
:101080000EF80023184680BDB0030020EC5E000877
:10109000C4030020DC01002080B483B000AF03460D
:1010A0000A46FB711346BB71FB79032B32D801A2B0
:1010B00052F823F0C5100008DB100008F1100008FA
:1010C000031100080023BB71164B1B68BA795A63E1
:1010D000154B1B68BA795A631CE03123BB71114B65
:1010E0001B6800225A63104B1B68BA795A6311E0DF
:1010F0000C4B1B6800225A630B4B1B68BA795A636E
:1011000008E0084B1B68BA795A63074B1B6800223A
:101110005A6300BF002318460C37BD465DF8047BB8
:10112000704700BFC00000205001002080B483B091
:1011300000AF03460A46FB711346BB71FB79022BD5
:101140000FD0022B1FDC002B02D0012B12D01AE093
:10115000104B1B680022DA630F4B1B6800221A64D5
:1011600011E00C4B1B68BA79DA630B4B1B68002249
:101170001A6408E0074B1B680022DA63064B1B6801
:10118000BA791A6400BF002318460C37BD465DF8D3
:10119000047B7047C00000205001002080B400AFE5
:1011A00072B600BFFEE7000080B483B000AF00233A
:1011B0007B60104B5B6C0F4A43F4804353640D4BD0
:1011C0005B6C03F480437B607B6800233B60094BCE
:1011D0001B6C084A43F080531364064B1B6C03F0EE
:1011E00080533B603B6800BF0C37BD465DF8047B15
:1011F000704700BF0038024080B586B000AF78600D
:101200007B681B682C4A93420ED100237B612B4BD9
:101210005B6C2A4A43F001035364284B5B6C03F078
:1012200001037B617B6942E07B681B68B3F1804FFF
:101230000ED100233B61214B1B6C204A43F001037C
:1012400013641E4B1B6C03F001033B613B692EE0F2
:101250007B681B681A4A934216D10023FB60174B28
:101260001B6C164A43F002031364144B1B6C03F00F
:101270000203FB60FB68002200211D2000F04FFCF0
:101280001D2000F068FC12E07B681B680D4A934249
:101290000DD10023BB60094B1B6C084A43F00403CB
:1012A0001364064B1B6C03F00403BB60BB6800BFF8
:1012B0001837BD4680BD00BF000001400038024025
:1012C000000400400008004080B58CB000AF78609A
:1012D00007F11C0300221A605A609A60DA601A61F2
:1012E0007B681B68464A93421FD10023BB61454B74
:1012F0001B6B444A43F001031363424B1B6B03F027
:101300000103BB61BB694FF41063FB6102233B62C5
:1013100000237B620023BB620123FB6207F11C03F5
:101320001946394801F034F866E07B681B68B3F170
:10133000804F3DD100237B61324B1B6B314A43F020
:10134000010313632F4B1B6B03F001037B617B696C
:1013500000233B612B4B1B6B2A4A43F002031363B0
:10136000284B1B6B03F002033B613B690323FB61CA
:1013700002233B6200237B620023BB620123FB62EA
:1013800007F11C031946204801F002F84FF480636E
:10139000FB6102233B6200237B620023BB620123CB
:1013A000FB6207F11C031946184800F0F1FF23E027
:1013B0007B681B68164A93421ED10023FB60114BC9
:1013C0001B6B104A43F0020313630E4B1B6B03F0BD
:1013D0000203FB60FB684FF47073FB6102233B6206
:1013E00000237B620023BB620223FB6207F11C0324
:1013F0001946064800F0CCFF00BF3037BD4680BD1F
:101400000000014000380240000002400004024099
:101410000008004080B58CB000AF786007F11C0375
:1014200000221A605A609A60DA601A617B681B6851
:10143000974A934240F092800023BB61954B5B6CCE
:10144000944A43F010035364924B5B6C03F0100317
:10145000BB61BB6900237B618E4B1B6B8D4A43F0E4
:10146000010313638B4B1B6B03F001037B617B69EF
:101470004FF4C063FB6102233B6200237B620323C2
:10148000BB620723FB6207F11C031946824800F088
:101490007FFF824B824A1A60804B4FF000625A6095
:1014A0007E4B00229A607D4B0022DA607B4B4FF42A
:1014B00080621A61794B00225A61784B00229A614E
:1014C000764B0022DA61754B00221A62734B0022C0
:1014D0005A62724800F05AFB0346002B01D0FFF716
:1014E0005DFE7B686D4A9A636C4A7B6893636D4BC3
:1014F0006D4A1A606B4B4FF000625A60694B402294
:101500009A60684B0022DA60664B4FF480621A6181
:10151000644B00225A61634B00229A61614B0022A6
:10152000DA61604B00221A625E4B00225A625D480B
:1015300000F02CFB0346002B01D0FFF72FFE7B6849
:10154000584A5A63574A7B6893630022002125203A
:1015500000F0E5FA252000F0FEFA95E07B681B68B4
:10156000524A934240F0908000233B61494B1B6CF0
:10157000484A43F400331364464B1B6C03F40033B6
:101580003B613B690023FB60424B1B6B414A43F0CC
:10159000010313633F4B1B6B03F00103FB60FB680C
:1015A0000C23FB6102233B6200237B620323BB62AB
:1015B0000723FB6207F11C031946374800F0E8FED9
:1015C0003B4B3C4A1A603A4B4FF000625A60384B32
:1015D00000229A60364B0022DA60354B4FF480626D
:1015E0001A61334B00225A61314B00229A61304B11
:1015F0000022DA612E4B00221A622D4B00225A6221
:101600002B4800F0C3FA0346002B01D0FFF7C6FDBC
:101610007B68274A9A63264A7B689363264B274A4E
:101620001A60254B4FF000625A60234B40229A60AB
:10163000214B0022DA60204B4FF480621A611E4B6E
:1016400000225A611C4B00229A611B4B0022DA6176
:10165000194B00221A62184B00225A62164800F0F9
:1016600095FA0346002B01D0FFF798FD7B68124ADC
:101670005A63114A7B68936300220021262000F000
:101680004EFA262000F067FA00BF3037BD4680BD15
:1016900000100140003802400000024020020020FB
:1016A0004064024080020020B864024000440040D0
:1016B000E00200208860024040030020A060024059
:1016C00080B400AFFEE780B400AFFEE780B400AFA7
:1016D000FEE780B400AFFEE780B400AFFEE780B461
:1016E00000AF00BFBD465DF8047B704780B400AF1B
:1016F00000BFBD465DF8047B704780B400AF00BFFB
:10170000BD465DF8047B704780B500AF00F00CF972
:1017100000BF80BD80B500AF024800F0CFFB00BF26
:1017200080BD00BFE002002080B500AF024800F09D
:10173000C5FB00BF80BD00BF4003002080B500AFE7
:10174000024801F005FE00BF80BD00BF0801002077
:1017500080B500AF024802F099FD00BF80BD00BF18
:101760009801002080B500AF024802F08FFD00BF55
:1017700080BD00BFDC01002080B500AF024800F052
:101780009DFB00BF80BD00BF2002002080B500AFE0
:10179000024800F093FB00BF80BD00BF8002002024
:1017A00080B586B000AF7860144A154BD31A7B61C0
:1017B0007B693B61134B1B68002B02D1114B124A12
:1017C0001A60104B1A687B6813443A699A4207D230
:1017D00003F004FF03460C221A604FF0FF3309E0C8
:1017E000084B1B68FB60074B1A687B681344054A6B
:1017F0001360FB6818461837BD4680BD0000012005
:1018000000040000C80300201805002080B400AFC9
:10181000064BD3F88830054A43F47003C2F8883089
:1018200000BFBD465DF8047B704700BF00ED00E0DF
:10183000DFF834D00D480E490E4A002302E0D45898
:10184000C4500433C4188C42F9D30B4A0B4C002308
:1018500001E013600432A242FBD3FFF7D7FF03F08D
:10186000C3FEFEF7CFFF70470000012000000020FC
:101870005C000020546000085C0000201805002077
:10188000FEE7000080B500AF0E4B1B680D4A43F425
:10189000007313600B4B1B680A4A43F480631360A8
:1018A000084B1B68074A43F480731360032000F061
:1018B0002BF9002000F008F8FFF776FC002318460B
:1018C00080BD00BF003C024080B582B000AF7860B0
:1018D000124B1A68124B1B7819464FF47A73B3FBFC
:1018E000F1F3B2FBF3F3184600F043F90346002B83
:1018F00001D001230EE07B680F2B0AD80022796803
:101900004FF0FF3000F00BF9064A7B6813600023AC
:1019100000E0012318460837BD4680BD00000020C6
:10192000080000200400002080B400AF064B1B78A4
:101930001A46064B1B681344044A136000BFBD4699
:101940005DF8047B704700BF08000020CC03002036
:1019500080B400AF034B1B681846BD465DF8047B9E
:10196000704700BFCC03002080B485B000AF786022
:101970007B6803F00703FB600C4BDB68BB60BA6855
:101980004FF6FF031340BB60FB681A02BB681343AA
:1019900043F0BF6343F40033BB60044ABB68D360C9
:1019A00000BF1437BD465DF8047B704700ED00E0D2
:1019B00080B400AF044BDB681B0A03F00703184632
:1019C000BD465DF8047B704700ED00E080B483B055
:1019D00000AF0346FB7197F90730002B0BDBFB7957
:1019E00003F01F02074997F907305B09012000FA4D
:1019F00002F241F8232000BF0C37BD465DF8047B9E
:101A0000704700BF00E100E080B483B000AF034640
:101A10003960FB7197F90730002B0ADB3B68DAB2BB
:101A20000C4997F907301201D2B20B4483F8002316
:101A30000AE03B68DAB20849FB7903F00F03043B84
:101A40001201D2B20B441A7600BF0C37BD465DF8C6
:101A5000047B704700E100E000ED00E080B489B055
:101A600000AFF860B9607A60FB6803F00703FB61C0
:101A7000FB69C3F10703042B28BF0423BB61FB6987
:101A80000433062B02D9FB69033B00E000237B6192
:101A90004FF0FF32BB6902FA03F3DA43BB681A4026
:101AA0007B699A404FF0FF317B6901FA03F3D94318
:101AB0007B680B40134318462437BD465DF8047B12
:101AC0007047000080B582B000AF78607B68013B52
:101AD000B3F1807F01D301230FE00A4A7B68013B09
:101AE00053600F214FF0FF30FFF78EFF054B0022B0
:101AF0009A60044B07221A60002318460837BD4637
:101B000080BD00BF10E000E080B582B000AF78601B
:101B10007868FFF729FF00BF0837BD4680BD80B554
:101B200086B000AF0346B9607A60FB7300237B6127
:101B3000FFF73EFF78617A68B9687869FFF78EFF32
:101B4000024697F90F3011461846FFF75DFF00BFB8
:101B50001837BD4680BD80B582B000AF0346FB712B
:101B600097F907301846FFF731FF00BF0837BD4629
:101B700080BD80B582B000AF78607868FFF7A2FFC3
:101B8000034618460837BD4680BD000080B586B0C4
:101B900000AF786000237B61FFF7DAFE38617B6875
:101BA000002B01D1012399E07B68022283F83520C4
:101BB0007B68002283F834207B681B681A687B6886
:101BC0001B6822F001021A600FE0FFF7C1FE024617
:101BD0003B69D31A052B08D97B6820225A657B689C
:101BE000032283F83520032378E07B681B681B6899
:101BF00003F00103002BE8D17B681B681B687B6145
:101C00007A69384B13407B617B685A687B689B68B4
:101C10001A437B68DB681A437B681B691A437B683D
:101C20005B691A437B689B691A437B68DB691A43CB
:101C30007B681B6A13437A6913437B617B685B6A29
:101C4000042B07D17B68DA6A7B681B6B13437A69C4
:101C500013437B617B681B687A691A607B681B6829
:101C60005B697B617B6923F007037B617B685B6A4F
:101C70007A6913437B617B685B6A042B17D17B68AD
:101C80009B6A7A6913437B617B68DB6A002B0ED009
:101C9000786800F001FB0346002B08D07B684022E7
:101CA0005A657B68012283F83520012316E07B68A2
:101CB0001B687A695A61786800F0B8FA0346FB60DD
:101CC0007B68DB6D3F229A40FB689A607B6800224C
:101CD0005A657B68012283F835200023184618379F
:101CE000BD4680BD3F8010F080B586B000AFF86083
:101CF000B9607A603B600023FB75FB689B6D3B61BC
:101D0000FB6893F83430012B01D1022340E0FB68DB
:101D1000012283F83420FB6893F83530DBB2012BC5
:101D20002FD1FB68022283F83520FB6800225A6518
:101D30003B687A68B968F86800F04AFAFB68DB6DBE
:101D40003F229A403B699A60FB681B681A68FB68EF
:101D50001B6842F016021A60FB681B6C002B07D050
:101D6000FB681B681A68FB681B6842F008021A606F
:101D7000FB681B681A68FB681B6842F001021A6066
:101D800005E0FB68002283F834200223FB75FB7D0D
:101D900018461837BD4680BD80B584B000AF786066
:101DA0007B689B6DFB60FFF7D3FDB8607B6893F8A1
:101DB0003530DBB2022B08D07B6880225A657B6805
:101DC000002283F83420012352E07B681B681A68E4
:101DD0007B681B6822F016021A607B681B685A69D0
:101DE0007B681B6822F080025A617B681B6C002BA9
:101DF00003D17B689B6C002B07D07B681B681A683B
:101E00007B681B6822F008021A607B681B681A68EE
:101E10007B681B6822F001021A6013E0FFF798FD4F
:101E20000246BB68D31A052B0CD97B6820225A6561
:101E30007B68032283F835207B68002283F83420F6
:101E4000032315E07B681B681B6803F00103002B6C
:101E5000E4D17B68DB6D3F229A40FB689A607B6827
:101E6000012283F835207B68002283F83420002388
:101E700018461037BD4680BD80B483B000AF78608F
:101E80007B6893F83530DBB2022B04D07B6880226C
:101E90005A6501230CE07B68052283F835207B68B6
:101EA0001B681A687B681B6822F001021A60002315
:101EB00018460C37BD465DF8047B704780B586B088
:101EC00000AF78600023BB608E4B1B688E4AA2FB7C
:101ED00003239B0A7B617B689B6D3B613B691B68AD
:101EE000FB607B68DB6D08229A40FB681340002B87
:101EF0001AD07B681B681B6803F00403002B13D007
:101F00007B681B681A687B681B6822F004021A60F1
:101F10007B68DB6D08229A403B699A607B685B6D49
:101F200043F001027B685A657B68DB6D01229A40B1
:101F3000FB681340002B12D07B681B685B6903F0C1
:101F40008003002B0BD07B68DB6D01229A403B693C
:101F50009A607B685B6D43F002027B685A657B6820
:101F6000DB6D04229A40FB681340002B12D07B6883
:101F70001B681B6803F00203002B0BD07B68DB6D32
:101F800004229A403B699A607B685B6D43F00402CF
:101F90007B685A657B68DB6D10229A40FB681340B2
:101FA000002B43D07B681B681B6803F00803002BE1
:101FB0003CD07B68DB6D10229A403B699A607B685D
:101FC0001B681B6803F48023002B18D07B681B68F8
:101FD0001B6803F40023002B08D17B681B6C002BCB
:101FE00024D07B681B6C786898471FE07B689B6CEB
:101FF000002B1BD07B689B6C7868984716E07B6849
:102000001B681B6803F48073002B07D17B681B6877
:102010001A687B681B6822F008021A607B681B6CD8
:10202000002B03D07B681B6C786898477B68DB6D5E
:1020300020229A40FB681340002B00F08F807B68C1
:102040001B681B6803F01003002B00F087807B687F
:10205000DB6D20229A403B699A607B6893F83530AB
:10206000DBB2052B36D17B681B681A687B681B685E
:1020700022F016021A607B681B685A697B681B682D
:1020800022F080025A617B681B6C002B03D17B68B5
:102090009B6C002B07D07B681B681A687B681B68E9
:1020A00022F008021A607B68DB6D3F229A403B6990
:1020B0009A607B68012283F835207B68002283F8D0
:1020C00034207B681B6D002B7ED07B681B6D78688D
:1020D000984779E07B681B681B6803F48023002B1A
:1020E0001DD07B681B681B6803F40023002B0DD1F7
:1020F0007B685B6C002B31D07B685B6C78689847A1
:102100002CE000BF00000020B5814E1B7B68DB6B1C
:10211000002B23D07B68DB6B786898471EE07B68D8
:102120001B681B6803F48073002B0FD17B681B684E
:102130001A687B681B6822F010021A607B68012213
:1021400083F835207B68002283F834207B68DB6BC2
:10215000002B03D07B68DB6B786898477B685B6DEE
:10216000002B32D07B685B6D03F00103002B22D083
:102170007B68052283F835207B681B681A687B68BA
:102180001B6822F001021A60BB680133BB607A69E8
:102190009A4207D37B681B681B6803F00103002B7E
:1021A000F2D100E000BF7B68012283F835207B6814
:1021B000002283F834207B68DB6C002B05D07B6821
:1021C000DB6C7868984700E000BF1837BD4680BDDB
:1021D00080B485B000AFF860B9607A603B60FB689E
:1021E0001B681A68FB681B6822F480221A60FB686F
:1021F0001B683A685A60FB689B68402B08D1FB68F3
:102200001B687A689A60FB681B68BA68DA6007E046
:10221000FB681B68BA689A60FB681B687A68DA60BA
:1022200000BF1437BD465DF8047B704780B485B0AD
:1022300000AF78607B681B68DBB2103B144AA2FBDE
:1022400003231B09FB60134AFB6813441B781A46DF
:102250007B68DA65FB68032B09D97B681B6823F46C
:102260007F7323F003031A1D7B689A6507E07B6880
:102270001B6823F47F7323F003037A6893657B68FC
:102280009B6D18461437BD465DF8047B704700BF50
:10229000ABAAAAAA085F000880B485B000AF786036
:1022A0000023FB737B689B6ABB607B689B69002B88
:1022B0001FD1BB68032B56D801A252F823F000BFF0
:1022C000D1220008E3220008D12200086723000879
:1022D0007B68DB6A03F08073002B46D00123FB731D
:1022E00043E07B68DB6AB3F1C07F40D10123FB731D
:1022F0003DE07B689B69B3F5005F21D1BB68032B90
:1023000037D801A252F823F0192300081F23000830
:1023100019230008312300080123FB7330E07B6898
:10232000DB6A03F08073002B25D00123FB7322E0CE
:102330007B68DB6AB3F1C07F1FD10123FB731CE014
:10234000BB68022B03D9BB68032B03D018E0012321
:10235000FB7315E07B68DB6A03F08073002B0ED003
:102360000123FB730BE000BF0AE000BF08E000BFE1
:1023700006E000BF04E000BF02E000BF00E000BFD5
:10238000FB7B18461437BD465DF8047B704700BFE1
:1023900080B489B000AF7860396000237B6100238E
:1023A0003B610023BB610023FB6159E10122FB6912
:1023B00002FA03F37B613B681B687A6913403B6157
:1023C0003A697B699A4240F048813B685B6803F058
:1023D0000303012B05D03B685B6803F00303022B6A
:1023E00030D17B689B68BB61FB695B00032202FA0A
:1023F00003F3DB43BA691340BB613B68DA68FB69EE
:102400005B0002FA03F3BA691343BB617B68BA69E4
:102410009A607B685B68BB610122FB6902FA03F387
:10242000DB43BA691340BB613B685B681B0903F07F
:102430000102FB6902FA03F3BA691343BB617B68CB
:10244000BA695A603B685B6803F00303032B17D03B
:102450007B68DB68BB61FB695B00032202FA03F364
:10246000DB43BA691340BB613B689A68FB695B0058
:1024700002FA03F3BA691343BB617B68BA69DA6095
:102480003B685B6803F00303022B23D1FB69DA0886
:102490007B68083253F82230BB61FB6903F0070305
:1024A0009B000F2202FA03F3DB43BA691340BB61BE
:1024B0003B681A69FB6903F007039B0002FA03F308
:1024C000BA691343BB61FB69DA087B680832B969F2
:1024D00043F822107B681B68BB61FB695B00032229
:1024E00002FA03F3DB43BA691340BB613B685B68E4
:1024F00003F00302FB695B0002FA03F3BA691343BA
:10250000BB617B68BA691A603B685B6803F440335F
:10251000002B00F0A2800023FB60574B5B6C564AF7
:1025200043F480435364544B5B6C03F48043FB607F
:10253000FB68524AFB699B08023352F82330BB61A7
:10254000FB6903F003039B000F2202FA03F3DB4352
:10255000BA691340BB617B68494A934219D07B68D2
:10256000484A934213D07B68474A93420DD07B6818
:10257000464A934207D07B68454A934201D10423DF
:1025800008E0072306E0032304E0022302E001231E
:1025900000E00023FA6902F0030292009340BA6956
:1025A0001343BB613549FB699B080233BA6941F8A3
:1025B0002320384B9B68BB613B69DB43BA691340FE
:1025C000BB613B685B6803F48013002B03D0BA69DE
:1025D0003B691343BB612F4ABB6993602D4BDB689A
:1025E000BB613B69DB43BA691340BB613B685B6815
:1025F00003F40013002B03D0BA693B691343BB619A
:10260000244ABB69D360234B5B68BB613B69DB43F6
:10261000BA691340BB613B685B6803F40033002B6D
:1026200003D0BA693B691343BB611A4ABB69536063
:10263000184B1B68BB613B69DB43BA691340BB6144
:102640003B685B6803F48033002B03D0BA693B69B5
:102650001343BB610F4ABB691360FB690133FB6124
:10266000FB690F2B7FF6A2AE00BF00BF2437BD462B
:102670005DF8047B704700BF00380240003801401D
:10268000000002400004024000080240000C02402A
:1026900000100240003C014080B483B000AF78607D
:1026A0000B467B8013467B707B78002B03D07A88A7
:1026B0007B689A6103E07B881A047B689A6100BF9B
:1026C0000C37BD465DF8047B7047000080B586B0CE
:1026D00000AF78607B68002B01D1012367E27B6843
:1026E0001B6803F00103002B75D0884B9B6803F037
:1026F0000C03042B0CD0854B9B6803F00C03082BB8
:1027000012D1824B5B6803F48003B3F5800F0BD1C9
:102710007E4B1B6803F40033002B5BD07B685B6847
:10272000002B57D1012342E27B685B68B3F5803F01
:1027300006D1764B1B68754A43F4803313601DE065
:102740007B685B68B3F5A02F0CD1704B1B686F4A98
:1027500043F4802313606D4B1B686C4A43F4803351
:1027600013600BE0694B1B68684A23F480331360E5
:10277000664B1B68654A23F4802313607B685B68A3
:10278000002B13D0FFF7E4F8386108E0FFF7E0F81A
:1027900002463B69D31A642B01D9032307E25B4B42
:1027A0001B6803F40033002BF0D014E0FFF7D0F8DF
:1027B000386108E0FFF7CCF802463B69D31A642B76
:1027C00001D90323F3E1514B1B6803F40033002BC1
:1027D000F0D100E000BF7B681B6803F00203002B10
:1027E00063D04A4B9B6803F00C03002B0BD0474B84
:1027F0009B6803F00C03082B1CD1444B5B6803F46B
:102800008003002B16D1414B1B6803F00203002B01
:1028100005D07B68DB68012B01D00123C7E13B4B6E
:102820001B6823F0F8027B681B69DB003749134300
:102830000B603AE07B68DB68002B20D0344B012230
:102840001A60FFF785F8386108E0FFF781F8024663
:102850003B69D31A022B01D90323A8E12B4B1B6838
:1028600003F00203002BF0D0284B1B6823F0F80282
:102870007B681B69DB00254913430B6015E0244B83
:1028800000221A60FFF764F8386108E0FFF760F88B
:1028900002463B69D31A022B01D9032387E11B4B64
:1028A0001B6803F00203002BF0D17B681B6803F068
:1028B0000803002B36D07B685B69002B16D0154BC4
:1028C00001221A60FFF744F8386108E0FFF740F88A
:1028D00002463B69D31A022B01D9032367E10B4B54
:1028E0005B6F03F00203002BF0D01BE0094B0022CA
:1028F0001A60FFF72DF838610EE0FFF729F802465D
:102900003B69D31A022B07D9032350E10038024058
:1029100000004742800E4742884B5B6F03F0020382
:10292000002BEAD17B681B6803F00403002B00F046
:1029300097800023FB75814B1B6C03F08053002BA9
:102940000FD10023BB607D4B1B6C7C4A43F080534E
:1029500013647A4B1B6C03F08053BB60BB6801238C
:10296000FB75774B1B6803F48073002B18D1744BF5
:102970001B68734A43F480731360FEF7E9FF386104
:1029800008E0FEF7E5FF02463B69D31A022B01D9A6
:1029900003230CE16A4B1B6803F48073002BF0D017
:1029A0007B689B68012B06D1644B1B6F634A43F025
:1029B000010313671CE07B689B68052B0CD15F4B00
:1029C0001B6F5E4A43F0040313675C4B1B6F5B4A4B
:1029D00043F0010313670BE0584B1B6F574A23F07A
:1029E00001031367554B1B6F544A23F0040313670D
:1029F0007B689B68002B15D0FEF7AAFF38610AE0C0
:102A0000FEF7A6FF02463B69D31A41F28832934291
:102A100001D90323CBE0494B1B6F03F00203002BCA
:102A2000EED014E0FEF794FF38610AE0FEF790FF65
:102A300002463B69D31A41F28832934201D90323FB
:102A4000B5E03E4B1B6F03F00203002BEED1FB7D84
:102A5000012B05D1394B1B6C384A23F0805313648A
:102A60007B689B69002B00F0A180344B9B6803F0CE
:102A70000C03082B5CD07B689B69022B41D1314B46
:102A800000221A60FEF764FF386108E0FEF760FF7D
:102A900002463B69D31A022B01D9032387E0274B57
:102AA0001B6803F00073002BF0D17B68DA697B6848
:102AB0001B6A1A437B685B6A9B011A437B689B6AAB
:102AC0005B08013B1B041A437B68DB6A1B061B493E
:102AD00013434B601B4B01221A60FEF739FF38612C
:102AE00008E0FEF735FF02463B69D31A022B01D9F5
:102AF00003235CE0114B1B6803F00073002BF0D044
:102B000054E0104B00221A60FEF722FF386108E003
:102B1000FEF71EFF02463B69D31A022B01D903239D
:102B200045E0064B1B6803F00073002BF0D13DE03D
:102B30007B689B69012B07D1012338E000380240F4
:102B400000700040600047421B4B5B68FB607B6885
:102B50009B69012B28D0FB6803F480027B68DB694A
:102B60009A4221D1FB6803F03F027B681B6A9A42BC
:102B70001AD1FA6847F6C07313407A68526A920114
:102B8000934211D1FB6803F440327B689B6A5B0877
:102B9000013B1B049A4207D1FB6803F070627B681B
:102BA000DB6A1B069A4201D0012300E0002318468D
:102BB0001837BD4680BD00BF0038024080B584B0E4
:102BC00000AF786039607B68002B01D10123CCE035
:102BD000684B1B6803F007033A689A420CD9654BAF
:102BE0003A68D2B21A70634B1B6803F007033A6865
:102BF0009A4201D00123B8E07B681B6803F002030E
:102C0000002B20D07B681B6803F00403002B05D049
:102C1000594B9B68584A43F4E05393607B681B68A8
:102C200003F00803002B05D0534B9B68524A43F432
:102C300060439360504B9B6823F0F0027B689B6875
:102C40004D4913438B607B681B6803F00103002B25
:102C500044D07B685B68012B07D1474B1B6803F4AA
:102C60000033002B19D101237FE07B685B68022BC6
:102C700003D07B685B68032B07D13F4B1B6803F0D5
:102C80000073002B09D101236FE03B4B1B6803F05D
:102C90000203002B01D1012367E0374B9B6823F02F
:102CA00003027B685B68344913438B60FEF750FE78
:102CB000F8600AE0FEF74CFE0246FB68D31A41F2C8
:102CC0008832934201D903234FE02B4B9B6803F0DA
:102CD0000C027B685B689B009A42EBD1254B1B681A
:102CE00003F007033A689A420CD2224B3A68D2B2F8
:102CF0001A70204B1B6803F007033A689A4201D010
:102D0000012332E07B681B6803F00403002B08D02A
:102D1000194B9B6823F4E0527B68DB681649134328
:102D20008B607B681B6803F00803002B09D0124BF3
:102D30009B6823F460427B681B69DB000E491343E8
:102D40008B6000F021F802460B4B9B681B0903F0D7
:102D50000F030A49CB5C22FA03F3094A1360094BBB
:102D60001B681846FEF7B0FD002318461037BD4615
:102D700080BD00BF003C024000380240F05E000809
:102D800000000020040000202DE9B04F90B000AFFB
:102D900000237B630023FB6300233B630023BB63AF
:102DA000594B9B6803F00C03082B0DD0082B00F245
:102DB000A180002B02D0042B03D09BE0534BBB63BC
:102DC0009BE0534BBB6398E04F4B5B6803F03F03C2
:102DD0007B634D4B5B6803F48003002B28D04A4B88
:102DE0005B689B0900223B627A623B6AC3F308007E
:102DF0000021474B03FB01F2002300FB03F31344C4
:102E0000434AA0FB0212FA620A46BA62FA6A134403
:102E1000FB627B6B0022BB61FA61D7E90623D7E92D
:102E20000A01FDF72DFA02460B461346FB6353E0F9
:102E3000354B5B689B0900223B617A613B69C3F3B8
:102E4000080A4FF0000B52465B464FF000004FF06F
:102E50000001590141EAD261500102460B46B2EB32
:102E60000A0863EB0B094FF000024FF000034FEA32
:102E7000891343EA98634FEA8812B2EB080463EBC4
:102E800009054FF000024FF00003EB0043EA5473D2
:102E9000E20014461D4614EB0A033B6045EB0B03AE
:102EA0007B604FF000024FF00003D7E90045294650
:102EB0008B02214643EA915321468A021046194665
:102EC0007B6B0022BB60FA60D7E90223FDF7D8F9DB
:102ED00002460B461346FB630B4B5B681B0C03F06F
:102EE000030301335B003B63FA6B3B6BB2FBF3F311
:102EF000BB6302E0054BBB6300BFBB6B18464037AA
:102F0000BD46BDE8B08F00BF003802400024F40089
:102F100040787D0180B400AF034B1B681846BD4666
:102F20005DF8047B704700BF0000002080B500AF53
:102F3000FFF7F0FF0246054B9B689B0A03F007036F
:102F40000349CB5C22FA03F3184680BD00380240E7
:102F5000005F000880B500AFFFF7DCFF0246054BBD
:102F60009B685B0B03F007030349CB5C22FA03F376
:102F7000184680BD00380240005F000880B582B06E
:102F800000AF78607B68002B01D1012341E07B68B2
:102F900093F83D30DBB2002B06D17B68002283F82A
:102FA0003C207868FEF728F97B68022283F83D20F0
:102FB0007B681A687B6804331946104600F082FC6F
:102FC0007B68012283F846207B68012283F83E203B
:102FD0007B68012283F83F207B68012283F8402030
:102FE0007B68012283F841207B68012283F842201C
:102FF0007B68012283F843207B68012283F8442008
:103000007B68012283F845207B68012283F83D20FC
:10301000002318460837BD4680BD000080B485B047
:1030200000AF78607B6893F83D30DBB2012B01D0B4
:10303000012344E07B68022283F83D207B681B6803
:10304000DA687B681B6842F00102DA607B681B6803
:103050001E4A934218D07B681B68B3F1804F13D08F
:103060007B681B681A4A93420ED07B681B68194A1A
:10307000934209D07B681B68174A934204D07B684F
:103080001B68164A934211D17B681B689B6803F04A
:103090000703FB60FB68062B10D07B681B681A686F
:1030A0007B681B6842F001021A6007E07B681B68BE
:1030B0001A687B681B6842F001021A6000231846F8
:1030C0001437BD465DF8047B704700BF0000014027
:1030D0000004004000080040000C00400040014097
:1030E00080B483B000AF78607B681B68DA687B6867
:1030F0001B6822F00102DA607B681B681A6A41F2E1
:1031000011131340002B0FD17B681B681A6A40F221
:1031100044431340002B07D17B681B681A687B6807
:103120001B6822F001021A607B68012283F83D20AF
:10313000002318460C37BD465DF8047B704780B508
:1031400082B000AF78607B68002B01D1012341E0A1
:103150007B6893F83D30DBB2002B06D17B68002200
:1031600083F83C20786800F039F87B68022283F805
:103170003D207B681A687B6804331946104600F0CE
:10318000A1FB7B68012283F846207B68012283F83B
:103190003E207B68012283F83F207B68012283F870
:1031A00040207B68012283F841207B68012283F85C
:1031B00042207B68012283F843207B68012283F848
:1031C00044207B68012283F845207B68012283F834
:1031D0003D20002318460837BD4680BD80B483B02B
:1031E00000AF786000BF0C37BD465DF8047B7047C8
:1031F00080B584B000AF786039603B68002B09D19E
:103200007B6893F83E30DBB2012B14BF012300230F
:10321000DBB222E03B68042B09D17B6893F83F3096
:10322000DBB2012B14BF01230023DBB215E03B68A6
:10323000082B09D17B6893F84030DBB2012B14BF17
:1032400001230023DBB208E07B6893F84130DBB256
:10325000012B14BF01230023DBB2002B01D001237B
:1032600068E03B68002B04D17B68022283F83E2093
:1032700013E03B68042B04D17B68022283F83F20D3
:103280000BE03B68082B04D17B68022283F84020C6
:1032900003E07B68022283F841207B681B680122DF
:1032A0003968184600F0B4FD7B681B68234A9342D6
:1032B00007D17B681B685A6C7B681B6842F400422C
:1032C0005A647B681B681D4A934218D07B681B6850
:1032D000B3F1804F13D07B681B68194A93420ED01C
:1032E0007B681B68174A934209D07B681B68164AA3
:1032F000934204D07B681B68144A934211D17B68C7
:103300001B689B6803F00703FB60FB68062B10D06B
:103310007B681B681A687B681B6842F001021A60B0
:1033200007E07B681B681A687B681B6842F0010233
:103330001A60002318461037BD4680BD00000140CA
:103340000004004000080040000C00400040014024
:1033500080B582B000AF78607B681B681B6903F0A2
:103360000203022B22D17B681B68DB6803F0020397
:10337000022B1BD17B681B686FF002021A617B680D
:1033800001221A777B681B689B6903F00303002BFB
:1033900003D0786800F077FA05E0786800F069FA01
:1033A000786800F07AFA7B6800221A777B681B68DD
:1033B0001B6903F00403042B22D17B681B68DB68C4
:1033C00003F00403042B1BD17B681B686FF004021D
:1033D0001A617B6802221A777B681B689B6903F479
:1033E0004073002B03D0786800F04DFA05E0786850
:1033F00000F03FFA786800F050FA7B6800221A77F4
:103400007B681B681B6903F00803082B22D17B68CB
:103410001B68DB6803F00803082B1BD17B681B6863
:103420006FF008021A617B6804221A777B681B68B8
:10343000DB6903F00303002B03D0786800F023FA64
:1034400005E0786800F015FA786800F026FA7B68E5
:1034500000221A777B681B681B6903F01003102B8E
:1034600022D17B681B68DB6803F01003102B1BD193
:103470007B681B686FF010021A617B6808221A775C
:103480007B681B68DB6903F44073002B03D078680A
:1034900000F0F9F905E0786800F0EBF9786800F0E1
:1034A000FCF97B6800221A777B681B681B6903F0B4
:1034B0000103012B0ED17B681B68DB6803F001035D
:1034C000012B07D17B681B686FF001021A617868D5
:1034D000FDF754F87B681B681B6903F08003802BA1
:1034E0000ED17B681B68DB6803F08003802B07D15B
:1034F0007B681B686FF080021A61786800F078FDC5
:103500007B681B681B6903F04003402B0ED17B686E
:103510001B68DB6803F04003402B07D17B681B6806
:103520006FF040021A61786800F0C1F97B681B688F
:103530001B6903F02003202B0ED17B681B68DB681E
:1035400003F02003202B07D17B681B686FF020025B
:103550001A61786800F042FD00BF0837BD4680BDA3
:1035600080B586B000AFF860B9607A600023FB7563
:10357000FB6893F83C30012B01D10223AEE0FB68DD
:10358000012283F83C207B680C2B00F29F8001A273
:1035900052F823F0C9350008CD360008CD360008B2
:1035A000CD36000809360008CD360008CD360008B3
:1035B000CD3600084B360008CD360008CD36000861
:1035C000CD3600088B360008FB681B68B9681846C2
:1035D00000F0F8F9FB681B689A69FB681B6842F009
:1035E00008029A61FB681B689A69FB681B6822F0F5
:1035F00004029A61FB681B689969BB681A69FB68D9
:103600001B680A439A6164E0FB681B68B968184646
:1036100000F03EFAFB681B689A69FB681B6842F47D
:1036200000629A61FB681B689A69FB681B6822F458
:1036300080629A61FB681B689969BB681B691A0202
:10364000FB681B680A439A6143E0FB681B68B96822
:10365000184600F089FAFB681B68DA69FB681B688A
:1036600042F00802DA61FB681B68DA69FB681B68D4
:1036700022F00402DA61FB681B68D969BB681A6929
:10368000FB681B680A43DA6123E0FB681B68B968C2
:10369000184600F0D3FAFB681B68DA69FB681B6800
:1036A00042F40062DA61FB681B68DA69FB681B6838
:1036B00022F48062DA61FB681B68D969BB681B6908
:1036C0001A02FB681B680A43DA6102E00123FB75FA
:1036D00000BFFB68002283F83C20FB7D18461837AA
:1036E000BD4680BD80B584B000AF786039600023EE
:1036F000FB737B6893F83C30012B01D10223B4E0CB
:103700007B68012283F83C207B68022283F83D20FD
:103710007B681B689B68BB60BB6823F07703BB605A
:10372000BB6823F47F43BB607B681B68BA689A6000
:103730003B681B68B3F5005F3ED0B3F5005F00F255
:103740008780B3F5805F00F08680B3F5805F7FD817
:10375000702B1AD0702B7BD8602B50D0602B77D871
:10376000502B3CD0502B73D8402B58D0402B6FD8C7
:10377000302B64D0302B6BD8202B60D0202B67D817
:10378000002B5CD0102B5AD062E07B6818683B6835
:1037900099683B685A683B68DB6800F019FB7B68F6
:1037A0001B689B68BB60BB6843F07703BB607B68AA
:1037B0001B68BA689A604FE07B6818683B68996834
:1037C0003B685A683B68DB6800F002FB7B681B685B
:1037D0009A687B681B6842F480429A603CE07B6890
:1037E00018683B6859683B68DB681A4600F076FA4F
:1037F0007B681B685021184600F0CFFA2CE07B68EC
:1038000018683B6859683B68DB681A4600F095FA0F
:103810007B681B686021184600F0BFFA1CE07B68DB
:1038200018683B6859683B68DB681A4600F056FA2E
:103830007B681B684021184600F0AFFA0CE07B68FB
:103840001A683B681B681946104600F0A6FA03E0A8
:103850000123FB7300E000BF7B68012283F83D2059
:103860007B68002283F83C20FB7B18461037BD465E
:1038700080BD80B483B000AF786000BF0C37BD4618
:103880005DF8047B704780B483B000AF786000BF00
:103890000C37BD465DF8047B704780B483B000AF41
:1038A000786000BF0C37BD465DF8047B704780B47C
:1038B00083B000AF786000BF0C37BD465DF8047B75
:1038C0007047000080B485B000AF786039607B68D5
:1038D0001B68FB607B68344A93420FD07B68B3F16E
:1038E000804F0BD07B68314A934207D07B68304AC7
:1038F000934203D07B682F4A934208D1FB6823F0A0
:103900007003FB603B685B68FA681343FB607B688D
:10391000254A93421BD07B68B3F1804F17D07B6858
:10392000224A934213D07B68214A93420FD07B688E
:10393000204A93420BD07B681F4A934207D07B6892
:103940001E4A934203D07B681D4A934208D1FB680C
:1039500023F44073FB603B68DB68FA681343FB6049
:10396000FB6823F080023B685B691343FB607B6864
:10397000FA681A603B689A687B68DA623B681A6882
:103980007B689A627B68084A934203D13B681A6954
:103990007B681A637B6801225A6100BF1437BD46F9
:1039A0005DF8047B704700BF000001400004004048
:1039B00000080040000C004000400140004401406D
:1039C0000048014080B487B000AF786039607B6800
:1039D0001B6A23F001027B681A627B681B6A7B61A9
:1039E0007B685B683B617B689B69FB60FB6823F0DD
:1039F0007003FB60FB6823F00303FB603B681B68FC
:103A0000FA681343FB607B6923F002037B613B6828
:103A10009B687A6913437B617B681C4A93420CD193
:103A20007B6923F008037B613B68DB687A69134399
:103A30007B617B6923F004037B617B68134A9342BB
:103A400011D13B6923F480733B613B6923F400731C
:103A50003B613B685B693A6913433B613B689B6927
:103A60003A6913433B617B683A695A607B68FA683C
:103A70009A613B685A687B685A637B687A691A6204
:103A800000BF1C37BD465DF8047B70470000014055
:103A900080B487B000AF786039607B681B6A23F020
:103AA00010027B681A627B681B6A7B617B685B68BB
:103AB0003B617B689B69FB60FB6823F4E043FB6030
:103AC000FB6823F44073FB603B681B681B02FA68C9
:103AD0001343FB607B6923F020037B613B689B6899
:103AE0001B017A6913437B617B681E4A93420DD1A7
:103AF0007B6923F080037B613B68DB681B017A698B
:103B000013437B617B6923F040037B617B68154A2B
:103B1000934213D13B6923F480633B613B6923F4F7
:103B200000633B613B685B699B003A6913433B61FF
:103B30003B689B699B003A6913433B617B683A6928
:103B40005A607B68FA689A613B685A687B689A6336
:103B50007B687A691A6200BF1C37BD465DF8047B3A
:103B6000704700BF0000014080B487B000AF7860AC
:103B700039607B681B6A23F480727B681A627B68F9
:103B80001B6A7B617B685B683B617B68DB69FB6010
:103B9000FB6823F07003FB60FB6823F00303FB600A
:103BA0003B681B68FA681343FB607B6923F400736E
:103BB0007B613B689B681B027A6913437B617B686E
:103BC0001D4A93420DD17B6923F400637B613B68FE
:103BD000DB681B027A6913437B617B6923F4806392
:103BE0007B617B68144A934213D13B6923F4805371
:103BF0003B613B6923F400533B613B685B691B01FC
:103C00003A6913433B613B689B691B013A69134363
:103C10003B617B683A695A607B68FA68DA613B68A5
:103C20005A687B68DA637B687A691A6200BF1C375E
:103C3000BD465DF8047B70470000014080B487B04A
:103C400000AF786039607B681B6A23F480527B6820
:103C50001A627B681B6A3B617B685B687B617B687F
:103C6000DB69FB60FB6823F4E043FB60FB6823F443
:103C70004073FB603B681B681B02FA681343FB60E0
:103C80003B6923F400533B613B689B681B033A6923
:103C900013433B617B68104A934209D17B6923F44B
:103CA00080437B613B685B699B017A6913437B615D
:103CB0007B687A695A607B68FA68DA613B685A689F
:103CC0007B681A647B683A691A6200BF1C37BD467C
:103CD0005DF8047B704700BF0000014080B487B0EE
:103CE00000AFF860B9607A60FB681B6A7B61FB68B3
:103CF0001B6A23F00102FB681A62FB689B693B6147
:103D00003B6923F0F0033B617B681B013A69134375
:103D10003B617B6923F00A037B617A69BB681343CB
:103D20007B61FB683A699A61FB687A691A6200BF35
:103D30001C37BD465DF8047B704780B487B000AF88
:103D4000F860B9607A60FB681B6A23F01002FB68B8
:103D50001A62FB689B697B61FB681B6A3B617B693C
:103D600023F470437B617B681B037A6913437B6197
:103D70003B6923F0A0033B61BB681B013A69134315
:103D80003B61FB687A699A61FB683A691A6200BF15
:103D90001C37BD465DF8047B704780B485B000AF2A
:103DA000786039607B689B68FB60FB6823F0700378
:103DB000FB603A68FB68134343F00703FB607B68D2
:103DC000FA689A6000BF1437BD465DF8047B7047FF
:103DD00080B487B000AFF860B9607A603B60FB6880
:103DE0009B687B617B6923F47F437B613B681A029C
:103DF0007B681A43BB6813437A6913437B61FB6892
:103E00007A699A6000BF1C37BD465DF8047B704735
:103E100080B487B000AFF860B9607A60BB6803F027
:103E20001F03012202FA03F37B61FB681A6A7B69B4
:103E3000DB431A40FB681A62FB681A6ABB6803F02E
:103E40001F03796801FA03F31A43FB681A6200BF83
:103E50001C37BD465DF8047B7047000080B485B018
:103E600000AF786039607B6893F83C30012B01D15A
:103E7000022350E07B68012283F83C207B68022209
:103E800083F83D207B681B685B68FB607B681B6870
:103E90009B68BB60FB6823F07003FB603B681B689A
:103EA000FA681343FB607B681B68FA685A607B689A
:103EB0001B681C4A934218D07B681B68B3F1804F83
:103EC00013D07B681B68184A93420ED07B681B682E
:103ED000164A934209D07B681B68154A934204D066
:103EE0007B681B68134A93420CD1BB6823F08003A4
:103EF000BB603B685B68BA681343BB607B681B6848
:103F0000BA689A607B68012283F83D207B680022B2
:103F100083F83C20002318461437BD465DF8047B27
:103F2000704700BF0000014000040040000800404E
:103F3000000C00400040014080B485B000AF7860C4
:103F400039600023FB607B6893F83C30012B01D182
:103F500002233DE07B68012283F83C20FB6823F0CC
:103F6000FF023B68DB681343FB60FB6823F440728D
:103F70003B689B681343FB60FB6823F480623B68EB
:103F80005B681343FB60FB6823F400623B681B68BB
:103F90001343FB60FB6823F480523B681B691343A7
:103FA000FB60FB6823F400523B685B691343FB60D2
:103FB000FB6823F480423B68DB691343FB607B684A
:103FC0001B68FA685A647B68002283F83C2000234F
:103FD00018461437BD465DF8047B704780B483B043
:103FE00000AF786000BF0C37BD465DF8047B7047BA
:103FF00080B483B000AF786000BF0C37BD465DF879
:10400000047B704780B582B000AF78607B68002B7E
:1040100001D101233FE07B6893F83D30DBB2002BF8
:1040200006D17B68002283F83C207868FDF7F2F91E
:104030007B68242283F83D207B681B68DA687B68F4
:104040001B6822F40052DA60786800F09BFF7B68FE
:104050001B681A697B681B6822F490421A617B68AE
:104060001B685A697B681B6822F02A025A617B68C8
:104070001B68DA687B681B6842F40052DA607B6870
:1040800000221A647B68202283F83D207B6820226E
:1040900083F83E20002318460837BD4680BD80B512
:1040A0008AB002AFF860B9603B601346FB80002322
:1040B0007B61FB6893F83D30DBB2202B7CD1BB6881
:1040C000002B02D0FB88002B01D1012375E0FB6897
:1040D00093F83C30012B01D102236EE0FB680122F2
:1040E00083F83C20FB6800221A64FB68212283F8D5
:1040F0003D20FDF72DFC7861FB68FA889A84FB6807
:10410000FA88DA84FB689B68B3F5805F08D1FB68A6
:104110001B69002B04D10023FB61BB68BB6103E07A
:10412000BB68FB610023BB61FB68002283F83C2075
:104130002AE03B6800937B6900228021F86800F048
:1041400053FC0346002B01D0032336E0FB69002B10
:104150000BD1BB691B881A46FB681B68C2F30802B7
:104160005A60BB690233BB6107E0FB691A78FB68E0
:104170001B685A60FB690133FB61FB68DB8C9BB2F7
:10418000013B9AB2FB68DA84FB68DB8C9BB2002BA4
:10419000CFD13B6800937B6900224021F86800F092
:1041A00023FC0346002B01D0032306E0FB682022FA
:1041B00083F83D20002300E0022318462037BD4647
:1041C00080BD80B58CB000AFF860B9601346FB804D
:1041D000FB6893F83E30DBB2202B52D1BB68002B3A
:1041E00002D0FB88002B01D101234BE0FB6893F840
:1041F0003C30012B01D1022344E0FB68012283F80B
:104200003C20FB6801221A63FB881A46B968F868EB
:1042100000F058FC034687F82F3097F82F30002B1A
:104220002CD1FB681B6B012B25D100233B61FB6864
:104230001B681B683B61FB681B685B683B613B69F3
:10424000FB681B680C33BB61BB6953E8003F7B61B3
:104250007B6943F01003BB62FB681B680C33BA6ACE
:104260007A623B62396A7A6A41E80023FB61FB6942
:10427000002BE5D102E0012387F82F3097F82F308B
:1042800000E0022318463037BD4680BD80B5BAB085
:1042900000AF78607B681B681B68C7F8E4307B68F8
:1042A0001B68DB68C7F8E0307B681B685B69C7F890
:1042B000DC300023C7F8D8300023C7F8D430D7F853
:1042C000E43003F00F03C7F8D830D7F8D830002B0C
:1042D0000FD1D7F8E43003F02003002B09D0D7F832
:1042E000E03003F02003002B03D0786800F08FFD4E
:1042F00056E2D7F8D830002B00F0DE80D7F8DC305B
:1043000003F00103002B06D1D7F8E03003F49073DB
:10431000002B00F0D180D7F8E43003F00103002B2C
:104320000BD0D7F8E03003F48073002B05D07B6806
:104330001B6C43F001027B681A64D7F8E43003F089
:104340000403002B0BD0D7F8DC3003F00103002B63
:1043500005D07B681B6C43F002027B681A64D7F8B7
:10436000E43003F00203002B0BD0D7F8DC3003F06D
:104370000103002B05D07B681B6C43F004027B68B3
:104380001A64D7F8E43003F00803002B11D0D7F8F3
:10439000E03003F02003002B05D1D7F8DC3003F028
:1043A0000103002B05D07B681B6C43F008027B687F
:1043B0001A647B681B6C002B00F0ED81D7F8E430A9
:1043C00003F02003002B08D0D7F8E03003F02003DF
:1043D000002B02D0786800F01AFD7B681B685B69CF
:1043E00003F04003402B0CBF01230023DBB2C7F8CE
:1043F000D4307B681B6C03F00803002B03D1D7F883
:10440000D430002B4FD0786800F022FC7B681B680A
:104410005B6903F04003402B41D17B681B68143378
:10442000C7F89C30D7F89C3053E8003FC7F8983065
:10443000D7F8983023F04003C7F8D0307B681B686A
:104440001433D7F8D020C7F8A820C7F8A430D7F87D
:10445000A410D7F8A82041E80023C7F8A030D7F867
:10446000A030002BD9D17B689B6B002B13D07B68CD
:104470009B6B7D4A1A657B689B6B1846FDF7FCFCBD
:104480000346002B16D07B689B6B1B6D7A68926B82
:10449000104698470EE0786800F0A4F90AE07868C2
:1044A00000F0A0F906E0786800F09CF97B68002233
:1044B0001A6470E100BF6EE17B681B6B012B40F05A
:1044C0004A81D7F8E43003F01003002B00F0438159
:1044D000D7F8E03003F01003002B00F03C810023FC
:1044E000BB607B681B681B68BB607B681B685B6884
:1044F000BB60BB687B681B685B6903F04003402BB3
:1045000040F0B4807B689B6B1B685B68A7F8BE308B
:10451000B7F8BE30002B00F040817B689B8DB7F868
:10452000BE209A4280F039817B68B7F8BE20DA85D8
:104530007B689B6BDB69B3F5807F00F088807B68CC
:104540001B680C33C7F88830D7F8883053E8003F31
:10455000C7F88430D7F8843023F48073C7F8B830B4
:104560007B681B680C33D7F8B820C7F89420C7F8CD
:104570009030D7F89010D7F8942041E80023C7F87E
:104580008C30D7F88C30002BD9D17B681B68143362
:104590007B677B6F53E8003F3B673B6F23F0010372
:1045A000C7F8B4307B681B681433D7F8B420C7F859
:1045B0008020FB67F96FD7F8802041E80023BB67B4
:1045C000BB6F002BE1D17B681B6814333B663B6EED
:1045D00053E8003FFB65FB6D23F04003C7F8B030A4
:1045E0007B681B681433D7F8B020FA66BB66B96ED7
:1045F000FA6E41E800237B667B6E002BE3D17B687B
:10460000202283F83E207B6800221A637B681B68A7
:104610000C33FB64FB6C53E8003FBB64BB6C23F0C2
:104620001003C7F8AC307B681B680C33D7F8AC209C
:10463000BA657B65796DBA6D41E800233B653B6DDA
:10464000002BE3D17B689B6B1846FDF7A5FB7B68CD
:104650009A8D7B68DB8D9BB2D31A9BB21946786822
:10466000FBF7C8FF99E000BF174D00087B689A8DE3
:104670007B68DB8D9BB2D31AA7F8CE307B68DB8DCD
:104680009BB2002B00F08B80B7F8CE30002B00F0EF
:1046900086807B681B680C33BB63BB6B53E8003FB1
:1046A0007B637B6B23F49073C7F8C8307B681B680F
:1046B0000C33D7F8C8207A643B64396C7A6C41E8D3
:1046C0000023FB63FB6B002BE3D17B681B68143377
:1046D0007B627B6A53E8003F3B623B6A23F0010345
:1046E000C7F8C4307B681B681433D7F8C4203A631A
:1046F000FB62F96A3A6B41E80023BB62BB6A002B9C
:10470000E3D17B68202283F83E207B6800221A6375
:104710007B681B680C333B613B6953E8003FFB60DF
:10472000FB6823F01003C7F8C0307B681B680C33AC
:10473000D7F8C020FA61BB61B969FA6941E8002382
:104740007B617B69002BE3D1B7F8CE3019467868DE
:10475000FBF750FF23E0D7F8E43003F08003002B91
:1047600009D0D7F8E03003F08003002B03D078683D
:1047700000F0E5FA14E0D7F8E43003F04003002B32
:104780000ED0D7F8E03003F04003002B08D0786853
:1047900000F025FB04E000BF02E000BF00E000BF26
:1047A000E837BD4680BD00BF80B483B000AF7860FD
:1047B00000BF0C37BD465DF8047B704780B483B002
:1047C00000AF786000BF0C37BD465DF8047B7047D2
:1047D00080B483B000AF786000BF0C37BD465DF891
:1047E000047B704780B483B000AF786000BF0C37A3
:1047F000BD465DF8047B704780B59CB000AF786023
:104800007B689B6BFB667B681B681B6803F480738B
:10481000002B72D1FB6E0022DA85FB6E1B680C3315
:10482000FB64FB6C53E8003FBB64BB6C23F48073F8
:10483000BB66FB6E1B680C33BA6EBA657B65796D1F
:10484000BA6D41E800233B653B6D002BE5D1FB6E63
:104850001B681433BB63BB6B53E8003F7B637B6B0C
:1048600023F001037B66FB6E1B6814337A6E7A6457
:104870003B64396C7A6C41E80023FB63FB6B002BD3
:10488000E5D1FB6E1B6814337B627B6A53E8003F03
:104890003B623B6A23F040033B66FB6E1B681433AC
:1048A0003A6E3A63FB62F96A3A6B41E80023BB62F5
:1048B000BB6A002BE5D1FB6E202283F83E20FB6E05
:1048C0001B6B012B19D1FB6E1B680C333B613B69E1
:1048D00053E8003FFB60FB6823F01003FB65FB6EB1
:1048E0001B680C33FA6DFA61BB61B969FA6941E87A
:1048F00000237B617B69002BE5D1FB6E1B6B012BD9
:1049000006D1FB6E9B8D1946F86EFBF773FE02E035
:10491000F86EFFF753FF00BF7037BD4680BD80B50E
:1049200084B000AF78607B689B6BFB60FB681B6B9F
:10493000012B08D1FB689B8D5B089BB21946F86878
:10494000FBF758FE02E0F868FFF742FF00BF1037A0
:10495000BD4680BD80B584B000AF78600023FB60A9
:104960007B689B6BBB60BB681B685B6903F0800363
:10497000802B0CBF01230023DBB2FB60BB6893F8E4
:104980003D30DBB2212B08D1FB68002B05D0BB6882
:104990000022DA84B86800F033F9BB681B685B69F1
:1049A00003F04003402B0CBF01230023DBB2FB606C
:1049B000BB6893F83E30DBB2222B08D1FB68002B9A
:1049C00005D0BB680022DA85B86800F041F9BB6801
:1049D0001B6C43F01002BB681A64B868FFF702FF53
:1049E00000BF1037BD4680BD80B590B000AFF86005
:1049F000B9603B601346FB7150E0BB6CB3F1FF3F05
:104A00004CD0BB6C002B07D0FCF7A2FF02463B68E2
:104A1000D31ABA6C9A4241D2FB681B680C33BB6252
:104A2000BB6A53E8003F7B627B6A23F4D073FB636D
:104A3000FB681B680C33FA6B7A633B63396B7A6BE8
:104A400041E80023FB62FB6A002BE5D1FB681B6891
:104A500014337B617B6953E8003F3B613B6923F082
:104A60000103BB63FB681B681433BA6B3A62FB61DA
:104A7000F9693A6A41E80023BB61BB69002BE5D1C3
:104A8000FB68202283F83D20FB68202283F83E202B
:104A9000FB68002283F83C2003230FE0FB681B68BF
:104AA0001A68BB681340BA689A420CBF01230023FE
:104AB000DBB21A46FB799A429FD000231846403752
:104AC000BD4680BD80B598B000AFF860B9601346B0
:104AD000FB80BA68FB689A62FB68FA889A85FB6873
:104AE00000221A64FB68222283F83E20FB689B6B3D
:104AF000404ADA63FB689B6B3F4A1A64FB689B6B16
:104B00003E4ADA64FB689B6B00221A6507F10803D2
:104B1000FB65FB68986BFB681B6804331946FB6DEB
:104B20001A68FB88FDF7E0F800233B61FB681B680F
:104B30001B683B61FB681B685B683B613B69FB680A
:104B4000002283F83C20FB681B69002B19D0FB680E
:104B50001B680C333B643B6C53E8003FFB63FB6B0F
:104B600043F48073BB65FB681B680C33BA6DFA6451
:104B7000BB64B96CFA6C41E800237B647B6C002B4E
:104B8000E5D1FB681B681433FB62FB6A53E8003F06
:104B9000BB62BB6A43F001037B65FB681B6814338F
:104BA0007A6DBA637B63796BBA6B41E800233B6330
:104BB0003B6B002BE5D1FB681B681433BB61BB6901
:104BC00053E8003F7B617B6943F040033B65FB6832
:104BD0001B6814333A6D7A623B62396A7A6A41E83B
:104BE0000023FB61FB69002BE5D1002318466037E9
:104BF000BD4680BDF94700081F4900085549000817
:104C000080B489B000AF78607B681B680C33FB60B0
:104C1000FB6853E8003FBB60BB6823F0C003FB6147
:104C20007B681B680C33FA69BA617B617969BA6980
:104C300041E800233B613B69002BE5D17B682022E2
:104C400083F83D2000BF2437BD465DF8047B7047E4
:104C500080B495B000AF78607B681B680C337B63D1
:104C60007B6B53E8003F3B633B6B23F49073FB6427
:104C70007B681B680C33FA6C3A64FB63F96B3A6C23
:104C800041E80023BB63BB6B002BE5D17B681B684D
:104C900014333B623B6A53E8003FFB61FB6923F03E
:104CA0000103BB647B681B681433BA6CFA62BB6295
:104CB000B96AFA6A41E800237B627B6A002BE5D17E
:104CC0007B681B6B012B19D17B681B680C33FB6065
:104CD000FB6853E8003FBB60BB6823F010037B64B4
:104CE0007B681B680C337A6CBA617B617969BA693D
:104CF00041E800233B613B69002BE5D17B68202222
:104D000083F83E207B6800221A6300BF5437BD46FB
:104D10005DF8047B704780B584B000AF78607B6835
:104D20009B6BFB60FB680022DA85FB680022DA845B
:104D3000F868FFF757FD00BF1037BD4680BD80B44F
:104D400085B000AF78607B6893F83D30DBB2212BF3
:104D50003ED17B689B68B3F5805F14D17B681B698B
:104D6000002B10D17B681B6AFB60FB681B881A460E
:104D70007B681B68C2F308025A607B681B6A9A1C36
:104D80007B681A6208E07B681B6A591C7A681162AA
:104D90001A787B681B685A607B68DB8C9BB2013B8E
:104DA0009BB27A681946D184002B0FD17B681B68AF
:104DB000DA687B681B6822F08002DA607B681B6817
:104DC000DA687B681B6842F04002DA60002300E08A
:104DD000022318461437BD465DF8047B704780B542
:104DE00082B000AF78607B681B68DA687B681B68FC
:104DF00022F04002DA607B68202283F83D20786848
:104E0000FFF7D2FC002318460837BD4680BD80B5A9
:104E10008CB000AF78607B6893F83E30DBB2222B19
:104E200040F0AB807B689B68B3F5805F17D17B68EF
:104E30001B69002B13D10023FB627B689B6ABB625A
:104E40007B681B685B689BB2C3F308039AB2BB6ABA
:104E50001A807B689B6A9A1C7B689A6226E07B6852
:104E60009B6AFB620023BB627B689B68B3F5805F33
:104E700007D07B689B68002B0AD17B681B69002BDD
:104E800006D17B681B685B68DAB2FB6A1A7008E0BF
:104E90007B681B685B68DBB203F07F03DAB2FB6AF6
:104EA0001A707B689B6A5A1C7B689A627B68DB8DF0
:104EB0009BB2013B9BB27A681946D185002B5AD12F
:104EC0007B681B68DA687B681B6822F02002DA6066
:104ED0007B681B68DA687B681B6822F48072DA6082
:104EE0007B681B685A697B681B6822F001025A6163
:104EF0007B68202283F83E207B681B6B012B35D119
:104F00007B6800221A637B681B680C337B617B69BA
:104F100053E8003F3B613B6923F010037B627B68F1
:104F20001B680C337A6A3A62FB61F9693A6A41E8B4
:104F30000023BB61BB69002BE5D17B681B681B6844
:104F400003F01003102B0AD10023FB607B681B6861
:104F50001B68FB607B681B685B68FB60FB687B68A9
:104F60009B8D19467868FBF745FB02E07868FFF7F0
:104F700025FC002302E0002300E00223184630371E
:104F8000BD4680BD2DE9B04FC0B000AFC7F8F400FA
:104F9000D7F8F4301B681B6923F44050D7F8F4307D
:104FA000D968D7F8F4301A6840EA01031361D7F8DA
:104FB000F4309A68D7F8F4301B691A43D7F8F43004
:104FC0005B691A43D7F8F430DB691343C7F8F8304C
:104FD000D7F8F4301B68DB6823F4164121F00C018C
:104FE000D7F8F4301A68D7F8F8300B43D360D7F805
:104FF000F4301B685B6923F44070D7F8F43099698A
:10500000D7F8F4301A6840EA01035361D7F8F43056
:105010001A688F4B9A4205D0D7F8F4301A688D4B36
:105020009A4204D1FDF796FFC7F8FC0003E0FDF7B4
:105030007DFFC7F8FC00D7F8F430DB69B3F5004F0B
:1050400040F00C81D7F8FC300022C7F8E830C7F8F0
:10505000EC20D7E93A4522462B469118B9655B41C9
:10506000FB65D7E91623214612EB0108294643EBDD
:1050700001094FF000024FF000034FEAC90343EA71
:1050800058734FEAC80290469946234618EB03032B
:10509000C7F8E0302B4649EB0303C7F8E430D7F8F4
:1050A000F4305B680022C7F8D830C7F8DC20D7E9B5
:1050B00036120B46DB183B65134642EB03037B6558
:1050C000D7E91423D7E93801FBF7DAF802460B4693
:1050D000614BA3FB02235B091C01D7F8FC300022C3
:1050E000C7F8D030C7F8D420D7E9348942464B46B8
:1050F0009118B9645B41FB64D7E91223414612EB76
:10510000010A494643EB010B4FF000024FF0000348
:105110004FEACB0343EA5A734FEACA0292469B46D0
:1051200043461AEB0303C7F8C8304B464BEB030367
:10513000C7F8CC30D7F8F4305B680022C7F8C0302D
:10514000C7F8C420D7E930120B46DB183B6413467E
:1051500042EB03037B64D7E91023D7E93201FBF765
:105160008FF802460B4611463B4BA3FB01235B091C
:10517000642202FB03F3CB1ADB0003F13202364B4D
:10518000A3FB02235B095B0003F4F8731C44D7F80C
:10519000FC300022C7F8B830C7F8BC20D7E92E8908
:1051A00042464B469118B9635B41FB63D7E90E2336
:1051B00041465118396349464B417B634FF0000229
:1051C0004FF00003D7E90CAB5946CB00514643EAF8
:1051D00051735146CA0010461946034642469B1871
:1051E000C7F8B0304B460A4642EB0303C7F8B43069
:1051F000D7F8F4305B680022C7F8A830C7F8AC20B5
:10520000D7E92A120B46DB18BB62134642EB0303B5
:10521000FB62D7E90A23D7E92C01FBF731F80246F4
:105220000B460D4BA3FB02135B09642101FB03F347
:10523000D31ADB003233084AA2FB03235B0903F0D5
:105240000702D7F8F4301B6822449A6006E100BFD9
:1052500000100140001401401F85EB51D7F8FC30CD
:105260000022C7F8A030C7F8A420D7E92889424611
:105270004B46911839625B417B62D7E9082341466E
:105280005418494643EB01054FF000024FF000036C
:10529000EB0043EA5473E20014461D464346E3180C
:1052A000C7F898304B4645EB0303C7F89C30D7F856
:1052B000F4305B680022C7F89030C7F894204FF0B4
:1052C00000024FF00003D7E9244529468B00214610
:1052D00043EA917321468A00D7E92601FAF7D0FF05
:1052E00002460B46604BA3FB02235B091C01D7F867
:1052F000FC300022C7F88830C7F88C20D7E9228913
:1053000042464B469118B9615B41FB61D7E90623E0
:1053100041465118396149464B417B614FF00002CB
:105320004FF00003D7E904AB5946CB00514643EA9E
:1053300051735146CA0010461946034642469B180F
:10534000C7F880304B460A4642EB0303C7F8843067
:10535000D7F8F4305B680022BB67FA674FF00002B1
:105360004FF00003D7E91E8949468B00414643EAC6
:10537000917341468A00D7E92001FAF781FF02467E
:105380000B461146384BA3FB01235B09642202FB49
:1053900003F3CB1A1B013233334AA2FB03235B090D
:1053A00003F0F0031C44D7F8FC3000223B677A6717
:1053B000D7E91C8942464B469118B9605B41FB60B6
:1053C000D7E9022341465118396049464B417B6079
:1053D0004FF000024FF00003D7E900AB5946CB0075
:1053E000514643EA51735146CA00104619460346D6
:1053F00042469B18BB664B460A4642EB0303FB66DC
:10540000D7F8F4305B6800223B667A664FF0000202
:105410004FF00003D7E9188949468B00414643EA1B
:10542000917341468A00D7E91A01FAF729FF02462B
:105430000B460D4BA3FB02135B09642101FB03F335
:10544000D31A1B013233084AA2FB03235B0903F082
:105450000F02D7F8F4301B6822449A6000BF07F5AA
:105460008077BD46BDE8B08F1F85EB510A22002131
:1054700000F082B8012B2DE9F04701D0242B06D98A
:1054800000F0ACF8162303600020BDE8F087DFF8D9
:10549000E4C00D462E4615F8014B1CF8047017F0B9
:1054A0000807F7D12D2C32D12C780127B51C002B01
:1054B0005BD0102B09D1302C07D12C7804F0DF04FD
:1054C000582C4DD16C781023023507F1004808F1B3
:1054D000FF384FF0000EB8FBF3F9764603FB198A4C
:1054E000A4F1300CBCF1090F16D86446A34224DDA8
:1054F000BEF1FF3F08D0B1451CD301D1A24519DB55
:1055000006FB03464FF0010E15F8014BE8E72B2C84
:1055100004BF2C78B51CCAE7A4F1410CBCF1190FEB
:1055200001D8373CE2E7A4F1610CBCF1190F04D8B3
:10553000573CDBE74FF0FF3EE6E7BEF1FF3F05D10A
:1055400022230360464642B930469EE707B17642C1
:10555000002AF9D0BEF1000F00D0691E1160F3E7F8
:105560003024002BB1D10823AFE7302CA5D00A237B
:10557000ABE700BF115F000813460A460146024828
:105580000068FFF777BF00BF580000200EB400B5D9
:105590009CB01DAB029006906FF000410948079146
:1055A0000491094953F8042B05910068019302A95D
:1055B00000F092F9029B00221A701CB05DF804EB17
:1055C00003B07047580000200802FFFF0244034662
:1055D000934200D1704703F8011BF9E7014B1868AB
:1055E000704700BF5800002070B50D4D0D4C641B76
:1055F000A4100026A64209D10B4D0C4C00F06AFC09
:10560000641BA4100026A64205D170BD55F8043BCA
:1056100098470136EEE755F8043B98470136F2E724
:105620004C6000084C6000084C60000850600008A6
:105630007047704737B5002944D051F8043C0190B9
:10564000002BA1F10404B8BFE41800F0DFF81E4AF3
:105650000198136833B96360146003B0BDE830404B
:1056600000F0DAB8A34208D9256861198B4201BF5E
:1056700019685B6849192160EDE71A465B680BB150
:10568000A342FAD911685518A5420BD124682144C8
:105690005418A3421160E0D11C685B6853600C444D
:1056A0001460DAE702D90C230360D6E72568611994
:1056B0008B4204BF19685B68636004BF49192160AD
:1056C0005460CAE703B030BD1005002070B50E4E1F
:1056D0000C463168054611B900F0A6FB3060214642
:1056E000284600F0A1FB431C0AD0C41C24F003048C
:1056F000A04207D0211A284600F096FB013001D1C4
:105700004FF0FF34204670BD140500202DE9F8430A
:10571000CD1C25F0030508350C2D38BF0C25002DB8
:10572000074601DBA94205D90C233B600026304621
:10573000BDE8F883DFF8D08000F068F8D8F80030D2
:105740001C465CBB29463846FFF7C0FF431C044695
:1057500055D1D8F800402646002E45D1002C48D01F
:1057600023683146384604EB030900F05DFB8145B0
:105770003FD121686D1A29463846FFF7A7FF01304F
:1057800037D023682B442360D8F80030002B38D062
:105790005A68A2422BD100225A600FE02268521BA5
:1057A0001FD40B2A17D96119A342256018BF59606D
:1057B000636808BFC8F8001062514B60384604F1B6
:1057C0000B0600F029F826F00706231DF21AAED0CA
:1057D0009B1BA350ABE7A3426268DDD1C8F8002051
:1057E000ECE723466468ACE734467668B4E71346D2
:1057F000CCE70C233B60384600F00EF897E72560B5
:10580000DCE75B60FFDE00BF100500200148FFF70A
:105810000FBF00BF0C0500200148FFF70ABF00BF03
:105820000C0500202DE9F0478E681F46BE420B682C
:1058300082460C4690462CD88A8912F4906F26D066
:105840006569096905EB4505A3EB010905EBD5750C
:105850007B1C4B446D109D4238BF1D46530527D518
:105860002946FFF753FF064660B321694A4600F018
:10587000EBFAA38923F4906343F08003A3812661AC
:1058800065614E44A5EB09052660A5603E46BE4213
:1058900000D93E4620683246414600F0ABFAA36884
:1058A0009B1BA3602368334423600020BDE8F0877E
:1058B0002A4600F0D7FA06460028E0D12169504672
:1058C000FFF7B8FE0C23CAF80030A38943F0400369
:1058D000A3814FF0FF30E9E72DE9F04F98468B891F
:1058E0001B069DB007460D4614460ED50B6963B9DD
:1058F0004021FFF70BFF2860286120B90C233B6093
:105900004FF0FF30D0E040236B6100230993202348
:105910008DF82930CDF80C803023DFF8A4818DF884
:105920002A304FF0010923469A4613F8012B0AB199
:10593000252AF9D1BAEB040B0BD05B462246294647
:105940003846FFF76FFF013000F0A980099A5A44EA
:1059500009929AF80030002B00F0A18000234FF04C
:10596000FF32CDE905230AF1010A049307938DF86C
:1059700053301A935446052214F8011B5048FAF785
:105980002FFC049AD8B9D00644BF20238DF8533099
:10599000110744BF2B238DF853309AF800302A2B7F
:1059A00015D0079A544600204FF00A0C214611F8F2
:1059B000013B303B092B4DD9B0B1079214E0A0EB6D
:1059C000080309FA03F313430493A246D2E7039BA7
:1059D000191D1B680391002BBBBF5B4242F0020202
:1059E00007930793B8BF049223782E2B0CD16378CA
:1059F0002A2B34D1039B1A1D1B680392002BB8BFBE
:105A00004FF0FF3302340593DFF8C4A0217803225E
:105A10005046FAF7E5FB38B1049BA0EB0A004022A0
:105A2000824013430134049314F8011B25488DF878
:105A300028100622FAF7D4FB002838D0224B1BBBD3
:105A4000039B073323F0070308330393099B334475
:105A5000099368E70CFB02320C460120A6E70023FD
:105A60000134059319464FF00A0C204610F8012B1B
:105A7000303A092A03D9002BC6D00591C4E70CFBA4
:105A8000012104460123F0E703AB00932A460F4BA4
:105A900004A93846AFF30080421C0646D6D1AB8934
:105AA0005B063FF52DAF09981DB0BDE8F08F03AB45
:105AB00000932A46054B04A9384600F079F8EBE735
:105AC000116000081B600008000000002558000855
:105AD000176000082DE9F047164699468A680B6959
